{
  "_format": "hh-sol-artifact-1",
  "contractName": "OpenCharity",
  "sourceName": "contracts/OpenCharity.sol",
  "abi": [
    {
      "inputs": [],
      "stateMutability": "nonpayable",
      "type": "constructor"
    },
    {
      "anonymous": false,
      "inputs": [
        {
          "indexed": false,
          "internalType": "address",
          "name": "_address",
          "type": "address"
        },
        {
          "indexed": false,
          "internalType": "uint256",
          "name": "amount",
          "type": "uint256"
        }
      ],
      "name": "NGORemittance",
      "type": "event"
    },
    {
      "anonymous": false,
      "inputs": [
        {
          "indexed": false,
          "internalType": "address",
          "name": "_address",
          "type": "address"
        },
        {
          "indexed": false,
          "internalType": "uint256",
          "name": "amount",
          "type": "uint256"
        }
      ],
      "name": "newDonor",
      "type": "event"
    },
    {
      "inputs": [],
      "name": "allIntervals",
      "outputs": [
        {
          "components": [
            {
              "internalType": "uint256",
              "name": "total_amount",
              "type": "uint256"
            },
            {
              "internalType": "address[]",
              "name": "addresses",
              "type": "address[]"
            },
            {
              "internalType": "uint256[]",
              "name": "amounts",
              "type": "uint256[]"
            },
            {
              "internalType": "uint256",
              "name": "startTime",
              "type": "uint256"
            },
            {
              "internalType": "uint256",
              "name": "endTime",
              "type": "uint256"
            }
          ],
          "internalType": "struct OpenCharity.Interval[]",
          "name": "",
          "type": "tuple[]"
        }
      ],
      "stateMutability": "view",
      "type": "function"
    },
    {
      "inputs": [],
      "name": "currentBalance",
      "outputs": [
        {
          "internalType": "uint256",
          "name": "",
          "type": "uint256"
        }
      ],
      "stateMutability": "view",
      "type": "function"
    },
    {
      "inputs": [],
      "name": "deposit",
      "outputs": [],
      "stateMutability": "payable",
      "type": "function"
    },
    {
      "inputs": [],
      "name": "distribute",
      "outputs": [],
      "stateMutability": "nonpayable",
      "type": "function"
    },
    {
      "inputs": [],
      "name": "getDonorAddresses",
      "outputs": [
        {
          "internalType": "address[]",
          "name": "",
          "type": "address[]"
        }
      ],
      "stateMutability": "view",
      "type": "function"
    },
    {
      "inputs": [],
      "name": "getDonorAmounts",
      "outputs": [
        {
          "internalType": "uint256[]",
          "name": "",
          "type": "uint256[]"
        }
      ],
      "stateMutability": "view",
      "type": "function"
    },
    {
      "inputs": [],
      "name": "getIntervalStart",
      "outputs": [
        {
          "internalType": "uint256",
          "name": "",
          "type": "uint256"
        }
      ],
      "stateMutability": "view",
      "type": "function"
    },
    {
      "inputs": [],
      "name": "getNGOs",
      "outputs": [
        {
          "internalType": "address[]",
          "name": "",
          "type": "address[]"
        }
      ],
      "stateMutability": "view",
      "type": "function"
    }
  ],
  "bytecode": "0x6080604052604051806060016040528073ab8483f64d9c6d1ecf9b849ae677dd3315835cb273ffffffffffffffffffffffffffffffffffffffff1673ffffffffffffffffffffffffffffffffffffffff16815260200173ca35b7d915458ef540ade6068dfe2f44e8fa733c73ffffffffffffffffffffffffffffffffffffffff1673ffffffffffffffffffffffffffffffffffffffff168152602001734b20993bc481177ec7e8f571cecae8a9e22c02db73ffffffffffffffffffffffffffffffffffffffff1673ffffffffffffffffffffffffffffffffffffffff168152506000906003620000f1929190620001b0565b50348015620000ff57600080fd5b506200010a6200023f565b6000816000018181525050428160600181815250506001819080600181540180825580915050600190039060005260206000209060050201600090919091909150600082015181600001556020820151816001019080519060200190620001739291906200026e565b50604082015181600201908051906020019062000192929190620002fd565b5060608201518160030155608082015181600401555050506200036e565b8280548282559060005260206000209081019282156200022c579160200282015b828111156200022b5782518260006101000a81548173ffffffffffffffffffffffffffffffffffffffff021916908373ffffffffffffffffffffffffffffffffffffffff16021790555091602001919060010190620001d1565b5b5090506200023b91906200034f565b5090565b6040518060a0016040528060008152602001606081526020016060815260200160008152602001600081525090565b828054828255906000526020600020908101928215620002ea579160200282015b82811115620002e95782518260006101000a81548173ffffffffffffffffffffffffffffffffffffffff021916908373ffffffffffffffffffffffffffffffffffffffff160217905550916020019190600101906200028f565b5b509050620002f991906200034f565b5090565b8280548282559060005260206000209081019282156200033c579160200282015b828111156200033b5782518255916020019190600101906200031e565b5b5090506200034b91906200034f565b5090565b5b808211156200036a57600081600090555060010162000350565b5090565b611231806200037e6000396000f3fe60806040526004361061007b5760003560e01c8063ce845d1d1161004e578063ce845d1d1461012c578063d0e30db014610157578063e4fc6b6d14610161578063e99176eb146101785761007b565b80631377db781461008057806337574b80146100ab5780635f2748be146100d6578063c57d14f514610101575b600080fd5b34801561008c57600080fd5b506100956101a3565b6040516100a29190610ede565b60405180910390f35b3480156100b757600080fd5b506100c0610231565b6040516100cd9190610f64565b60405180910390f35b3480156100e257600080fd5b506100eb610293565b6040516100f89190610f00565b60405180910390f35b34801561010d57600080fd5b506101166103f6565b6040516101239190610ede565b60405180910390f35b34801561013857600080fd5b506101416104dc565b60405161014e9190610f64565b60405180910390f35b61015f6104e4565b005b34801561016d57600080fd5b5061017661067c565b005b34801561018457600080fd5b5061018d61090e565b60405161019a9190610f22565b60405180910390f35b6060600080548060200260200160405190810160405280929190818152602001828054801561022757602002820191906000526020600020905b8160009054906101000a900473ffffffffffffffffffffffffffffffffffffffff1673ffffffffffffffffffffffffffffffffffffffff16815260200190600101908083116101dd575b5050505050905090565b6000600180808054905061024591906110e4565b8154811061027c577f4e487b7100000000000000000000000000000000000000000000000000000000600052603260045260246000fd5b906000526020600020906005020160030154905090565b60606001805480602002602001604051908101604052809291908181526020016000905b828210156103ed57838290600052602060002090600502016040518060a0016040529081600082015481526020016001820180548060200260200160405190810160405280929190818152602001828054801561036957602002820191906000526020600020905b8160009054906101000a900473ffffffffffffffffffffffffffffffffffffffff1673ffffffffffffffffffffffffffffffffffffffff168152602001906001019080831161031f575b50505050508152602001600282018054806020026020016040519081016040528092919081815260200182805480156103c157602002820191906000526020600020905b8154815260200190600101908083116103ad575b5050505050815260200160038201548152602001600482015481525050815260200190600101906102b7565b50505050905090565b6060600180808054905061040a91906110e4565b81548110610441577f4e487b7100000000000000000000000000000000000000000000000000000000600052603260045260246000fd5b90600052602060002090600502016001018054806020026020016040519081016040528092919081815260200182805480156104d257602002820191906000526020600020905b8160009054906101000a900473ffffffffffffffffffffffffffffffffffffffff1673ffffffffffffffffffffffffffffffffffffffff1681526020019060010190808311610488575b5050505050905090565b600047905090565b600060018080805490506104f891906110e4565b8154811061052f577f4e487b7100000000000000000000000000000000000000000000000000000000600052603260045260246000fd5b9060005260206000209060050201905034816000016000828254610553919061105d565b9250508190555034600260003373ffffffffffffffffffffffffffffffffffffffff1673ffffffffffffffffffffffffffffffffffffffff16815260200190815260200160002060008282546105a9919061105d565b9250508190555080600101339080600181540180825580915050600190039060005260206000200160009091909190916101000a81548173ffffffffffffffffffffffffffffffffffffffff021916908373ffffffffffffffffffffffffffffffffffffffff160217905550806002013490806001815401808255809150506001900390600052602060002001600090919091909150557ffbd113e28e2d71c485a938d289ddbadbfe8f9b7fcfdc53a993c7f7049ffe013f3334604051610671929190610eb5565b60405180910390a150565b6000600180808054905061069091906110e4565b815481106106c7577f4e487b7100000000000000000000000000000000000000000000000000000000600052603260045260246000fd5b90600052602060002090600502019050600a8160030154426106e991906110e4565b101561072a576040517f08c379a000000000000000000000000000000000000000000000000000000000815260040161072190610f44565b60405180910390fd5b600080805490504761073c91906110b3565b905060005b60008054905081101561085c57600260008054905061076091906110e4565b8111156107da576107d5600082815481106107a4577f4e487b7100000000000000000000000000000000000000000000000000000000600052603260045260246000fd5b9060005260206000200160009054906101000a900473ffffffffffffffffffffffffffffffffffffffff16476109be565b610849565b61084860008281548110610817577f4e487b7100000000000000000000000000000000000000000000000000000000600052603260045260246000fd5b9060005260206000200160009054906101000a900473ffffffffffffffffffffffffffffffffffffffff16836109be565b5b808061085490611154565b915050610741565b5042826004018190555061086e610a42565b60008160000181815250504281606001818152505060018190806001815401808255809150506001900390600052602060002090600502016000909190919091506000820151816000015560208201518160010190805190602001906108d5929190610a71565b5060408201518160020190805190602001906108f2929190610afb565b5060608201518160030155608082015181600401555050505050565b6060600180808054905061092291906110e4565b81548110610959577f4e487b7100000000000000000000000000000000000000000000000000000000600052603260045260246000fd5b90600052602060002090600502016002018054806020026020016040519081016040528092919081815260200182805480156109b457602002820191906000526020600020905b8154815260200190600101908083116109a0575b5050505050905090565b8173ffffffffffffffffffffffffffffffffffffffff166108fc829081150290604051600060405180830381858888f19350505050158015610a04573d6000803e3d6000fd5b507f24252ed3fcaa9789c659af71ce089fc63785d4bb9ad39db32bfec910fa52c8478282604051610a36929190610eb5565b60405180910390a15050565b6040518060a0016040528060008152602001606081526020016060815260200160008152602001600081525090565b828054828255906000526020600020908101928215610aea579160200282015b82811115610ae95782518260006101000a81548173ffffffffffffffffffffffffffffffffffffffff021916908373ffffffffffffffffffffffffffffffffffffffff16021790555091602001919060010190610a91565b5b509050610af79190610b48565b5090565b828054828255906000526020600020908101928215610b37579160200282015b82811115610b36578251825591602001919060010190610b1b565b5b509050610b449190610b48565b5090565b5b80821115610b61576000816000905550600101610b49565b5090565b6000610b718383610ba9565b60208301905092915050565b6000610b898383610e1a565b905092915050565b6000610b9d8383610e97565b60208301905092915050565b610bb281611118565b82525050565b610bc181611118565b82525050565b6000610bd282610faf565b610bdc8185610ff7565b9350610be783610f7f565b8060005b83811015610c18578151610bff8882610b65565b9750610c0a83610fd0565b925050600181019050610beb565b5085935050505092915050565b6000610c3082610faf565b610c3a8185611008565b9350610c4583610f7f565b8060005b83811015610c76578151610c5d8882610b65565b9750610c6883610fd0565b925050600181019050610c49565b5085935050505092915050565b6000610c8e82610fba565b610c988185611019565b935083602082028501610caa85610f8f565b8060005b85811015610ce65784840389528151610cc78582610b7d565b9450610cd283610fdd565b925060208a01995050600181019050610cae565b50829750879550505050505092915050565b6000610d0382610fc5565b610d0d818561102a565b9350610d1883610f9f565b8060005b83811015610d49578151610d308882610b91565b9750610d3b83610fea565b925050600181019050610d1c565b5085935050505092915050565b6000610d6182610fc5565b610d6b818561103b565b9350610d7683610f9f565b8060005b83811015610da7578151610d8e8882610b91565b9750610d9983610fea565b925050600181019050610d7a565b5085935050505092915050565b6000610dc160238361104c565b91507f4d696e696d756d2035206d696e7574657320696e74657276616c20726571756960008301527f72656400000000000000000000000000000000000000000000000000000000006020830152604082019050919050565b600060a083016000830151610e326000860182610e97565b5060208301518482036020860152610e4a8282610bc7565b91505060408301518482036040860152610e648282610cf8565b9150506060830151610e796060860182610e97565b506080830151610e8c6080860182610e97565b508091505092915050565b610ea08161114a565b82525050565b610eaf8161114a565b82525050565b6000604082019050610eca6000830185610bb8565b610ed76020830184610ea6565b9392505050565b60006020820190508181036000830152610ef88184610c25565b905092915050565b60006020820190508181036000830152610f1a8184610c83565b905092915050565b60006020820190508181036000830152610f3c8184610d56565b905092915050565b60006020820190508181036000830152610f5d81610db4565b9050919050565b6000602082019050610f796000830184610ea6565b92915050565b6000819050602082019050919050565b6000819050602082019050919050565b6000819050602082019050919050565b600081519050919050565b600081519050919050565b600081519050919050565b6000602082019050919050565b6000602082019050919050565b6000602082019050919050565b600082825260208201905092915050565b600082825260208201905092915050565b600082825260208201905092915050565b600082825260208201905092915050565b600082825260208201905092915050565b600082825260208201905092915050565b60006110688261114a565b91506110738361114a565b9250827fffffffffffffffffffffffffffffffffffffffffffffffffffffffffffffffff038211156110a8576110a761119d565b5b828201905092915050565b60006110be8261114a565b91506110c98361114a565b9250826110d9576110d86111cc565b5b828204905092915050565b60006110ef8261114a565b91506110fa8361114a565b92508282101561110d5761110c61119d565b5b828203905092915050565b60006111238261112a565b9050919050565b600073ffffffffffffffffffffffffffffffffffffffff82169050919050565b6000819050919050565b600061115f8261114a565b91507fffffffffffffffffffffffffffffffffffffffffffffffffffffffffffffffff8214156111925761119161119d565b5b600182019050919050565b7f4e487b7100000000000000000000000000000000000000000000000000000000600052601160045260246000fd5b7f4e487b7100000000000000000000000000000000000000000000000000000000600052601260045260246000fdfea26469706673582212203d7777efd1cbc11494dff63800c91a4d1d5d2503efead9a54206a3f49c2cfd7464736f6c63430008000033",
  "linkReferences": {},
  "deployedLinkReferences": {}
}