{
  "_format": "hh-sol-artifact-1",
  "contractName": "OpenCharity",
  "sourceName": "contracts/OpenCharity.sol",
  "abi": [
    {
      "inputs": [],
      "stateMutability": "nonpayable",
      "type": "constructor"
    },
    {
      "anonymous": false,
      "inputs": [
        {
          "indexed": false,
          "internalType": "address",
          "name": "_address",
          "type": "address"
        },
        {
          "indexed": false,
          "internalType": "uint256",
          "name": "amount",
          "type": "uint256"
        }
      ],
      "name": "NGORemittance",
      "type": "event"
    },
    {
      "anonymous": false,
      "inputs": [
        {
          "indexed": false,
          "internalType": "address",
          "name": "_address",
          "type": "address"
        },
        {
          "indexed": false,
          "internalType": "uint256",
          "name": "amount",
          "type": "uint256"
        }
      ],
      "name": "newDonor",
      "type": "event"
    },
    {
      "inputs": [],
      "name": "allIntervals",
      "outputs": [
        {
          "components": [
            {
              "internalType": "uint256",
              "name": "total_amount",
              "type": "uint256"
            },
            {
              "internalType": "address[]",
              "name": "addresses",
              "type": "address[]"
            },
            {
              "internalType": "uint256[]",
              "name": "amounts",
              "type": "uint256[]"
            },
            {
              "internalType": "uint256",
              "name": "startTime",
              "type": "uint256"
            },
            {
              "internalType": "uint256",
              "name": "endTime",
              "type": "uint256"
            }
          ],
          "internalType": "struct OpenCharity.Interval[]",
          "name": "",
          "type": "tuple[]"
        }
      ],
      "stateMutability": "view",
      "type": "function"
    },
    {
      "inputs": [],
      "name": "currentBalance",
      "outputs": [
        {
          "internalType": "uint256",
          "name": "",
          "type": "uint256"
        }
      ],
      "stateMutability": "view",
      "type": "function"
    },
    {
      "inputs": [],
      "name": "deposit",
      "outputs": [],
      "stateMutability": "payable",
      "type": "function"
    },
    {
      "inputs": [],
      "name": "distribute",
      "outputs": [],
      "stateMutability": "nonpayable",
      "type": "function"
    },
    {
      "inputs": [
        {
          "internalType": "address",
          "name": "_address",
          "type": "address"
        }
      ],
      "name": "getAmountPerAddress",
      "outputs": [
        {
          "internalType": "uint256",
          "name": "",
          "type": "uint256"
        }
      ],
      "stateMutability": "view",
      "type": "function"
    },
    {
      "inputs": [],
      "name": "getAmountReceivedByNGOs",
      "outputs": [
        {
          "internalType": "uint256[]",
          "name": "",
          "type": "uint256[]"
        }
      ],
      "stateMutability": "view",
      "type": "function"
    },
    {
      "inputs": [],
      "name": "getDonorAddresses",
      "outputs": [
        {
          "internalType": "address[]",
          "name": "",
          "type": "address[]"
        }
      ],
      "stateMutability": "view",
      "type": "function"
    },
    {
      "inputs": [],
      "name": "getDonorAddressesPerInterval",
      "outputs": [
        {
          "internalType": "address[]",
          "name": "",
          "type": "address[]"
        }
      ],
      "stateMutability": "view",
      "type": "function"
    },
    {
      "inputs": [],
      "name": "getDonorAmounts",
      "outputs": [
        {
          "internalType": "uint256[]",
          "name": "",
          "type": "uint256[]"
        }
      ],
      "stateMutability": "view",
      "type": "function"
    },
    {
      "inputs": [],
      "name": "getIntervalStart",
      "outputs": [
        {
          "internalType": "uint256",
          "name": "",
          "type": "uint256"
        }
      ],
      "stateMutability": "view",
      "type": "function"
    },
    {
      "inputs": [],
      "name": "getNGOs",
      "outputs": [
        {
          "internalType": "address[]",
          "name": "",
          "type": "address[]"
        }
      ],
      "stateMutability": "view",
      "type": "function"
    }
  ],
  "bytecode": "0x608060405260405180606001604052807315d34aaf54267db7d7c367839aaf71a00a2c6a6573ffffffffffffffffffffffffffffffffffffffff1673ffffffffffffffffffffffffffffffffffffffff168152602001739965507d1a55bcc2695c58ba16fb37d819b0a4dc73ffffffffffffffffffffffffffffffffffffffff1673ffffffffffffffffffffffffffffffffffffffff16815260200173976ea74026e726554db657fa54763abd0c3a0aa973ffffffffffffffffffffffffffffffffffffffff1673ffffffffffffffffffffffffffffffffffffffff168152506000906003620000f1929190620001ea565b506040518060600160405280600060ff168152602001600060ff168152602001600060ff1681525060019060036200012b92919062000279565b503480156200013957600080fd5b5062000144620002d0565b6000816000018181525050428160600181815250506002819080600181540180825580915050600190039060005260206000209060050201600090919091909150600082015181600001556020820151816001019080519060200190620001ad929190620002ff565b506040820151816002019080519060200190620001cc9291906200038e565b506060820151816003015560808201518160040155505050620003ff565b82805482825590600052602060002090810192821562000266579160200282015b82811115620002655782518260006101000a81548173ffffffffffffffffffffffffffffffffffffffff021916908373ffffffffffffffffffffffffffffffffffffffff160217905550916020019190600101906200020b565b5b509050620002759190620003e0565b5090565b828054828255906000526020600020908101928215620002bd579160200282015b82811115620002bc578251829060ff169055916020019190600101906200029a565b5b509050620002cc9190620003e0565b5090565b6040518060a0016040528060008152602001606081526020016060815260200160008152602001600081525090565b8280548282559060005260206000209081019282156200037b579160200282015b828111156200037a5782518260006101000a81548173ffffffffffffffffffffffffffffffffffffffff021916908373ffffffffffffffffffffffffffffffffffffffff1602179055509160200191906001019062000320565b5b5090506200038a9190620003e0565b5090565b828054828255906000526020600020908101928215620003cd579160200282015b82811115620003cc578251825591602001919060010190620003af565b5b509050620003dc9190620003e0565b5090565b5b80821115620003fb576000816000905550600101620003e1565b5090565b61157d806200040f6000396000f3fe60806040526004361061009c5760003560e01c8063aaca463311610064578063aaca46331461018a578063c57d14f5146101b5578063ce845d1d146101e0578063d0e30db01461020b578063e4fc6b6d14610215578063e99176eb1461022c5761009c565b80631377db78146100a1578063251bb560146100cc57806337574b8014610109578063591a52b7146101345780635f2748be1461015f575b600080fd5b3480156100ad57600080fd5b506100b6610257565b6040516100c39190611213565b60405180910390f35b3480156100d857600080fd5b506100f360048036038101906100ee9190610e71565b6102e5565b6040516101009190611299565b60405180910390f35b34801561011557600080fd5b5061011e61032e565b60405161012b9190611299565b60405180910390f35b34801561014057600080fd5b50610149610392565b6040516101569190611257565b60405180910390f35b34801561016b57600080fd5b506101746103ea565b6040516101819190611235565b60405180910390f35b34801561019657600080fd5b5061019f61054d565b6040516101ac9190611213565b60405180910390f35b3480156101c157600080fd5b506101ca610635565b6040516101d79190611213565b60405180910390f35b3480156101ec57600080fd5b506101f56106c3565b6040516102029190611299565b60405180910390f35b6102136106cb565b005b34801561022157600080fd5b5061022a610911565b005b34801561023857600080fd5b50610241610ba7565b60405161024e9190611257565b60405180910390f35b606060008054806020026020016040519081016040528092919081815260200182805480156102db57602002820191906000526020600020905b8160009054906101000a900473ffffffffffffffffffffffffffffffffffffffff1673ffffffffffffffffffffffffffffffffffffffff1681526020019060010190808311610291575b5050505050905090565b6000600360008373ffffffffffffffffffffffffffffffffffffffff1673ffffffffffffffffffffffffffffffffffffffff168152602001908152602001600020549050919050565b6000600260016002805490506103449190611419565b8154811061037b577f4e487b7100000000000000000000000000000000000000000000000000000000600052603260045260246000fd5b906000526020600020906005020160030154905090565b606060018054806020026020016040519081016040528092919081815260200182805480156103e057602002820191906000526020600020905b8154815260200190600101908083116103cc575b5050505050905090565b60606002805480602002602001604051908101604052809291908181526020016000905b8282101561054457838290600052602060002090600502016040518060a001604052908160008201548152602001600182018054806020026020016040519081016040528092919081815260200182805480156104c057602002820191906000526020600020905b8160009054906101000a900473ffffffffffffffffffffffffffffffffffffffff1673ffffffffffffffffffffffffffffffffffffffff1681526020019060010190808311610476575b505050505081526020016002820180548060200260200160405190810160405280929190818152602001828054801561051857602002820191906000526020600020905b815481526020019060010190808311610504575b50505050508152602001600382015481526020016004820154815250508152602001906001019061040e565b50505050905090565b6060600260016002805490506105639190611419565b8154811061059a577f4e487b7100000000000000000000000000000000000000000000000000000000600052603260045260246000fd5b906000526020600020906005020160010180548060200260200160405190810160405280929190818152602001828054801561062b57602002820191906000526020600020905b8160009054906101000a900473ffffffffffffffffffffffffffffffffffffffff1673ffffffffffffffffffffffffffffffffffffffff16815260200190600101908083116105e1575b5050505050905090565b606060048054806020026020016040519081016040528092919081815260200182805480156106b957602002820191906000526020600020905b8160009054906101000a900473ffffffffffffffffffffffffffffffffffffffff1673ffffffffffffffffffffffffffffffffffffffff168152602001906001019080831161066f575b5050505050905090565b600047905090565b6000600260016002805490506106e19190611419565b81548110610718577f4e487b7100000000000000000000000000000000000000000000000000000000600052603260045260246000fd5b906000526020600020906005020190503481600001600082825461073c9190611392565b925050819055506000600360003373ffffffffffffffffffffffffffffffffffffffff1673ffffffffffffffffffffffffffffffffffffffff1681526020019081526020016000205414156107ef576004339080600181540180825580915050600190039060005260206000200160009091909190916101000a81548173ffffffffffffffffffffffffffffffffffffffff021916908373ffffffffffffffffffffffffffffffffffffffff1602179055505b34600360003373ffffffffffffffffffffffffffffffffffffffff1673ffffffffffffffffffffffffffffffffffffffff168152602001908152602001600020600082825461083e9190611392565b9250508190555080600101339080600181540180825580915050600190039060005260206000200160009091909190916101000a81548173ffffffffffffffffffffffffffffffffffffffff021916908373ffffffffffffffffffffffffffffffffffffffff160217905550806002013490806001815401808255809150506001900390600052602060002001600090919091909150557ffbd113e28e2d71c485a938d289ddbadbfe8f9b7fcfdc53a993c7f7049ffe013f33346040516109069291906111ea565b60405180910390a150565b6000600260016002805490506109279190611419565b8154811061095e577f4e487b7100000000000000000000000000000000000000000000000000000000600052603260045260246000fd5b90600052602060002090600502019050603c8160030154426109809190611419565b10156109c1576040517f08c379a00000000000000000000000000000000000000000000000000000000081526004016109b890611279565b60405180910390fd5b60008080549050476109d391906113e8565b905060005b600080549050811015610af55760026000805490506109f79190611419565b811115610a7257610a6d60008281548110610a3b577f4e487b7100000000000000000000000000000000000000000000000000000000600052603260045260246000fd5b9060005260206000200160009054906101000a900473ffffffffffffffffffffffffffffffffffffffff164783610c59565b610ae2565b610ae160008281548110610aaf577f4e487b7100000000000000000000000000000000000000000000000000000000600052603260045260246000fd5b9060005260206000200160009054906101000a900473ffffffffffffffffffffffffffffffffffffffff168383610c59565b5b8080610aed90611489565b9150506109d8565b50428260040181905550610b07610d39565b6000816000018181525050428160600181815250506002819080600181540180825580915050600190039060005260206000209060050201600090919091909150600082015181600001556020820151816001019080519060200190610b6e929190610d68565b506040820151816002019080519060200190610b8b929190610df2565b5060608201518160030155608082015181600401555050505050565b606060026001600280549050610bbd9190611419565b81548110610bf4577f4e487b7100000000000000000000000000000000000000000000000000000000600052603260045260246000fd5b9060005260206000209060050201600201805480602002602001604051908101604052809291908181526020018280548015610c4f57602002820191906000526020600020905b815481526020019060010190808311610c3b575b5050505050905090565b8273ffffffffffffffffffffffffffffffffffffffff166108fc839081150290604051600060405180830381858888f19350505050158015610c9f573d6000803e3d6000fd5b508160018281548110610cdb577f4e487b7100000000000000000000000000000000000000000000000000000000600052603260045260246000fd5b906000526020600020016000828254610cf49190611392565b925050819055507f24252ed3fcaa9789c659af71ce089fc63785d4bb9ad39db32bfec910fa52c8478383604051610d2c9291906111ea565b60405180910390a1505050565b6040518060a0016040528060008152602001606081526020016060815260200160008152602001600081525090565b828054828255906000526020600020908101928215610de1579160200282015b82811115610de05782518260006101000a81548173ffffffffffffffffffffffffffffffffffffffff021916908373ffffffffffffffffffffffffffffffffffffffff16021790555091602001919060010190610d88565b5b509050610dee9190610e3f565b5090565b828054828255906000526020600020908101928215610e2e579160200282015b82811115610e2d578251825591602001919060010190610e12565b5b509050610e3b9190610e3f565b5090565b5b80821115610e58576000816000905550600101610e40565b5090565b600081359050610e6b81611530565b92915050565b600060208284031215610e8357600080fd5b6000610e9184828501610e5c565b91505092915050565b6000610ea68383610ede565b60208301905092915050565b6000610ebe838361114f565b905092915050565b6000610ed283836111cc565b60208301905092915050565b610ee78161144d565b82525050565b610ef68161144d565b82525050565b6000610f07826112e4565b610f11818561132c565b9350610f1c836112b4565b8060005b83811015610f4d578151610f348882610e9a565b9750610f3f83611305565b925050600181019050610f20565b5085935050505092915050565b6000610f65826112e4565b610f6f818561133d565b9350610f7a836112b4565b8060005b83811015610fab578151610f928882610e9a565b9750610f9d83611305565b925050600181019050610f7e565b5085935050505092915050565b6000610fc3826112ef565b610fcd818561134e565b935083602082028501610fdf856112c4565b8060005b8581101561101b5784840389528151610ffc8582610eb2565b945061100783611312565b925060208a01995050600181019050610fe3565b50829750879550505050505092915050565b6000611038826112fa565b611042818561135f565b935061104d836112d4565b8060005b8381101561107e5781516110658882610ec6565b97506110708361131f565b925050600181019050611051565b5085935050505092915050565b6000611096826112fa565b6110a08185611370565b93506110ab836112d4565b8060005b838110156110dc5781516110c38882610ec6565b97506110ce8361131f565b9250506001810190506110af565b5085935050505092915050565b60006110f6602283611381565b91507f4d696e696d756d2031206d696e75746520696e74657276616c2072657175697260008301527f65640000000000000000000000000000000000000000000000000000000000006020830152604082019050919050565b600060a08301600083015161116760008601826111cc565b506020830151848203602086015261117f8282610efc565b91505060408301518482036040860152611199828261102d565b91505060608301516111ae60608601826111cc565b5060808301516111c160808601826111cc565b508091505092915050565b6111d58161147f565b82525050565b6111e48161147f565b82525050565b60006040820190506111ff6000830185610eed565b61120c60208301846111db565b9392505050565b6000602082019050818103600083015261122d8184610f5a565b905092915050565b6000602082019050818103600083015261124f8184610fb8565b905092915050565b60006020820190508181036000830152611271818461108b565b905092915050565b60006020820190508181036000830152611292816110e9565b9050919050565b60006020820190506112ae60008301846111db565b92915050565b6000819050602082019050919050565b6000819050602082019050919050565b6000819050602082019050919050565b600081519050919050565b600081519050919050565b600081519050919050565b6000602082019050919050565b6000602082019050919050565b6000602082019050919050565b600082825260208201905092915050565b600082825260208201905092915050565b600082825260208201905092915050565b600082825260208201905092915050565b600082825260208201905092915050565b600082825260208201905092915050565b600061139d8261147f565b91506113a88361147f565b9250827fffffffffffffffffffffffffffffffffffffffffffffffffffffffffffffffff038211156113dd576113dc6114d2565b5b828201905092915050565b60006113f38261147f565b91506113fe8361147f565b92508261140e5761140d611501565b5b828204905092915050565b60006114248261147f565b915061142f8361147f565b925082821015611442576114416114d2565b5b828203905092915050565b60006114588261145f565b9050919050565b600073ffffffffffffffffffffffffffffffffffffffff82169050919050565b6000819050919050565b60006114948261147f565b91507fffffffffffffffffffffffffffffffffffffffffffffffffffffffffffffffff8214156114c7576114c66114d2565b5b600182019050919050565b7f4e487b7100000000000000000000000000000000000000000000000000000000600052601160045260246000fd5b7f4e487b7100000000000000000000000000000000000000000000000000000000600052601260045260246000fd5b6115398161144d565b811461154457600080fd5b5056fea26469706673582212200b6c34c0c03f11df481137aec842fd9f66638a91484bbf115f5b816b747e995b64736f6c63430008000033",
  "linkReferences": {},
  "deployedLinkReferences": {}
}