{
  "_format": "hh-sol-artifact-1",
  "contractName": "OpenCharity",
  "sourceName": "contracts/OpenCharity.sol",
  "abi": [
    {
      "inputs": [],
      "stateMutability": "nonpayable",
      "type": "constructor"
    },
    {
      "anonymous": false,
      "inputs": [
        {
          "indexed": false,
          "internalType": "address",
          "name": "_address",
          "type": "address"
        },
        {
          "indexed": false,
          "internalType": "uint256",
          "name": "amount",
          "type": "uint256"
        }
      ],
      "name": "NGORemittance",
      "type": "event"
    },
    {
      "anonymous": false,
      "inputs": [
        {
          "indexed": false,
          "internalType": "address",
          "name": "_address",
          "type": "address"
        },
        {
          "indexed": false,
          "internalType": "uint256",
          "name": "amount",
          "type": "uint256"
        }
      ],
      "name": "newDonor",
      "type": "event"
    },
    {
      "inputs": [],
      "name": "allIntervals",
      "outputs": [
        {
          "components": [
            {
              "internalType": "uint256",
              "name": "total_amount",
              "type": "uint256"
            },
            {
              "internalType": "address[]",
              "name": "addresses",
              "type": "address[]"
            },
            {
              "internalType": "uint256[]",
              "name": "amounts",
              "type": "uint256[]"
            },
            {
              "internalType": "uint256",
              "name": "startTime",
              "type": "uint256"
            },
            {
              "internalType": "uint256",
              "name": "endTime",
              "type": "uint256"
            }
          ],
          "internalType": "struct OpenCharity.Interval[]",
          "name": "",
          "type": "tuple[]"
        }
      ],
      "stateMutability": "view",
      "type": "function"
    },
    {
      "inputs": [],
      "name": "currentBalance",
      "outputs": [
        {
          "internalType": "uint256",
          "name": "",
          "type": "uint256"
        }
      ],
      "stateMutability": "view",
      "type": "function"
    },
    {
      "inputs": [],
      "name": "deposit",
      "outputs": [],
      "stateMutability": "payable",
      "type": "function"
    },
    {
      "inputs": [],
      "name": "distribute",
      "outputs": [],
      "stateMutability": "nonpayable",
      "type": "function"
    },
    {
      "inputs": [
        {
          "internalType": "uint256",
          "name": "i",
          "type": "uint256"
        }
      ],
      "name": "getAmountCollectedInInterval",
      "outputs": [
        {
          "internalType": "uint256",
          "name": "",
          "type": "uint256"
        }
      ],
      "stateMutability": "view",
      "type": "function"
    },
    {
      "inputs": [
        {
          "internalType": "address",
          "name": "_address",
          "type": "address"
        }
      ],
      "name": "getAmountPerAddress",
      "outputs": [
        {
          "internalType": "uint256",
          "name": "",
          "type": "uint256"
        }
      ],
      "stateMutability": "view",
      "type": "function"
    },
    {
      "inputs": [],
      "name": "getAmountReceivedByNGOs",
      "outputs": [
        {
          "internalType": "uint256[]",
          "name": "",
          "type": "uint256[]"
        }
      ],
      "stateMutability": "view",
      "type": "function"
    },
    {
      "inputs": [],
      "name": "getDonorAddresses",
      "outputs": [
        {
          "internalType": "address[]",
          "name": "",
          "type": "address[]"
        }
      ],
      "stateMutability": "view",
      "type": "function"
    },
    {
      "inputs": [],
      "name": "getDonorAddressesPerInterval",
      "outputs": [
        {
          "internalType": "address[]",
          "name": "",
          "type": "address[]"
        }
      ],
      "stateMutability": "view",
      "type": "function"
    },
    {
      "inputs": [],
      "name": "getDonorAmounts",
      "outputs": [
        {
          "internalType": "uint256[]",
          "name": "",
          "type": "uint256[]"
        }
      ],
      "stateMutability": "view",
      "type": "function"
    },
    {
      "inputs": [],
      "name": "getIntervalStart",
      "outputs": [
        {
          "internalType": "uint256",
          "name": "",
          "type": "uint256"
        }
      ],
      "stateMutability": "view",
      "type": "function"
    },
    {
      "inputs": [],
      "name": "getNGOs",
      "outputs": [
        {
          "internalType": "address[]",
          "name": "",
          "type": "address[]"
        }
      ],
      "stateMutability": "view",
      "type": "function"
    },
    {
      "inputs": [],
      "name": "getTotalIntervals",
      "outputs": [
        {
          "internalType": "uint256",
          "name": "",
          "type": "uint256"
        }
      ],
      "stateMutability": "view",
      "type": "function"
    }
  ],
  "bytecode": "0x608060405260405180606001604052807315d34aaf54267db7d7c367839aaf71a00a2c6a6573ffffffffffffffffffffffffffffffffffffffff1673ffffffffffffffffffffffffffffffffffffffff168152602001739965507d1a55bcc2695c58ba16fb37d819b0a4dc73ffffffffffffffffffffffffffffffffffffffff1673ffffffffffffffffffffffffffffffffffffffff16815260200173976ea74026e726554db657fa54763abd0c3a0aa973ffffffffffffffffffffffffffffffffffffffff1673ffffffffffffffffffffffffffffffffffffffff168152506000906003620000f1929190620001ea565b506040518060600160405280600060ff168152602001600060ff168152602001600060ff1681525060019060036200012b92919062000279565b503480156200013957600080fd5b5062000144620002d0565b6000816000018181525050428160600181815250506002819080600181540180825580915050600190039060005260206000209060050201600090919091909150600082015181600001556020820151816001019080519060200190620001ad929190620002ff565b506040820151816002019080519060200190620001cc9291906200038e565b506060820151816003015560808201518160040155505050620003ff565b82805482825590600052602060002090810192821562000266579160200282015b82811115620002655782518260006101000a81548173ffffffffffffffffffffffffffffffffffffffff021916908373ffffffffffffffffffffffffffffffffffffffff160217905550916020019190600101906200020b565b5b509050620002759190620003e0565b5090565b828054828255906000526020600020908101928215620002bd579160200282015b82811115620002bc578251829060ff169055916020019190600101906200029a565b5b509050620002cc9190620003e0565b5090565b6040518060a0016040528060008152602001606081526020016060815260200160008152602001600081525090565b8280548282559060005260206000209081019282156200037b579160200282015b828111156200037a5782518260006101000a81548173ffffffffffffffffffffffffffffffffffffffff021916908373ffffffffffffffffffffffffffffffffffffffff1602179055509160200191906001019062000320565b5b5090506200038a9190620003e0565b5090565b828054828255906000526020600020908101928215620003cd579160200282015b82811115620003cc578251825591602001919060010190620003af565b5b509050620003dc9190620003e0565b5090565b5b80821115620003fb576000816000905550600101620003e1565b5090565b611765806200040f6000396000f3fe6080604052600436106100c25760003560e01c8063825622a31161007f578063ce845d1d11610059578063ce845d1d1461026e578063d0e30db014610299578063e4fc6b6d146102a3578063e99176eb146102ba576100c2565b8063825622a3146101db578063aaca463314610218578063c57d14f514610243576100c2565b80631377db78146100c7578063251bb560146100f257806337574b801461012f5780633dc8e9731461015a578063591a52b7146101855780635f2748be146101b0575b600080fd5b3480156100d357600080fd5b506100dc6102e5565b6040516100e991906113c4565b60405180910390f35b3480156100fe57600080fd5b5061011960048036038101906101149190610fb9565b610373565b604051610126919061146a565b60405180910390f35b34801561013b57600080fd5b506101446103bc565b604051610151919061146a565b60405180910390f35b34801561016657600080fd5b5061016f610420565b60405161017c919061146a565b60405180910390f35b34801561019157600080fd5b5061019a61042d565b6040516101a79190611408565b60405180910390f35b3480156101bc57600080fd5b506101c5610485565b6040516101d291906113e6565b60405180910390f35b3480156101e757600080fd5b5061020260048036038101906101fd9190610fe2565b6105e8565b60405161020f919061146a565b60405180910390f35b34801561022457600080fd5b5061022d61063d565b60405161023a91906113c4565b60405180910390f35b34801561024f57600080fd5b50610258610725565b60405161026591906113c4565b60405180910390f35b34801561027a57600080fd5b506102836107b3565b604051610290919061146a565b60405180910390f35b6102a16107bb565b005b3480156102af57600080fd5b506102b8610a01565b005b3480156102c657600080fd5b506102cf610cda565b6040516102dc9190611408565b60405180910390f35b6060600080548060200260200160405190810160405280929190818152602001828054801561036957602002820191906000526020600020905b8160009054906101000a900473ffffffffffffffffffffffffffffffffffffffff1673ffffffffffffffffffffffffffffffffffffffff168152602001906001019080831161031f575b5050505050905090565b6000600360008373ffffffffffffffffffffffffffffffffffffffff1673ffffffffffffffffffffffffffffffffffffffff168152602001908152602001600020549050919050565b6000600260016002805490506103d291906115ea565b81548110610409577f4e487b7100000000000000000000000000000000000000000000000000000000600052603260045260246000fd5b906000526020600020906005020160030154905090565b6000600280549050905090565b6060600180548060200260200160405190810160405280929190818152602001828054801561047b57602002820191906000526020600020905b815481526020019060010190808311610467575b5050505050905090565b60606002805480602002602001604051908101604052809291908181526020016000905b828210156105df57838290600052602060002090600502016040518060a0016040529081600082015481526020016001820180548060200260200160405190810160405280929190818152602001828054801561055b57602002820191906000526020600020905b8160009054906101000a900473ffffffffffffffffffffffffffffffffffffffff1673ffffffffffffffffffffffffffffffffffffffff1681526020019060010190808311610511575b50505050508152602001600282018054806020026020016040519081016040528092919081815260200182805480156105b357602002820191906000526020600020905b81548152602001906001019080831161059f575b5050505050815260200160038201548152602001600482015481525050815260200190600101906104a9565b50505050905090565b600060028281548110610624577f4e487b7100000000000000000000000000000000000000000000000000000000600052603260045260246000fd5b9060005260206000209060050201600001549050919050565b60606002600160028054905061065391906115ea565b8154811061068a577f4e487b7100000000000000000000000000000000000000000000000000000000600052603260045260246000fd5b906000526020600020906005020160010180548060200260200160405190810160405280929190818152602001828054801561071b57602002820191906000526020600020905b8160009054906101000a900473ffffffffffffffffffffffffffffffffffffffff1673ffffffffffffffffffffffffffffffffffffffff16815260200190600101908083116106d1575b5050505050905090565b606060048054806020026020016040519081016040528092919081815260200182805480156107a957602002820191906000526020600020905b8160009054906101000a900473ffffffffffffffffffffffffffffffffffffffff1673ffffffffffffffffffffffffffffffffffffffff168152602001906001019080831161075f575b5050505050905090565b600047905090565b6000600260016002805490506107d191906115ea565b81548110610808577f4e487b7100000000000000000000000000000000000000000000000000000000600052603260045260246000fd5b906000526020600020906005020190503481600001600082825461082c9190611563565b925050819055506000600360003373ffffffffffffffffffffffffffffffffffffffff1673ffffffffffffffffffffffffffffffffffffffff1681526020019081526020016000205414156108df576004339080600181540180825580915050600190039060005260206000200160009091909190916101000a81548173ffffffffffffffffffffffffffffffffffffffff021916908373ffffffffffffffffffffffffffffffffffffffff1602179055505b34600360003373ffffffffffffffffffffffffffffffffffffffff1673ffffffffffffffffffffffffffffffffffffffff168152602001908152602001600020600082825461092e9190611563565b9250508190555080600101339080600181540180825580915050600190039060005260206000200160009091909190916101000a81548173ffffffffffffffffffffffffffffffffffffffff021916908373ffffffffffffffffffffffffffffffffffffffff160217905550806002013490806001815401808255809150506001900390600052602060002001600090919091909150557ffbd113e28e2d71c485a938d289ddbadbfe8f9b7fcfdc53a993c7f7049ffe013f33346040516109f692919061139b565b60405180910390a150565b600060026001600280549050610a1791906115ea565b81548110610a4e577f4e487b7100000000000000000000000000000000000000000000000000000000600052603260045260246000fd5b90600052602060002090600502019050603c816003015442610a7091906115ea565b1015610ab1576040517f08c379a0000000000000000000000000000000000000000000000000000000008152600401610aa89061144a565b60405180910390fd5b60004711610af4576040517f08c379a0000000000000000000000000000000000000000000000000000000008152600401610aeb9061142a565b60405180910390fd5b6000808054905047610b0691906115b9565b905060005b600080549050811015610c28576002600080549050610b2a91906115ea565b811115610ba557610ba060008281548110610b6e577f4e487b7100000000000000000000000000000000000000000000000000000000600052603260045260246000fd5b9060005260206000200160009054906101000a900473ffffffffffffffffffffffffffffffffffffffff164783610d8c565b610c15565b610c1460008281548110610be2577f4e487b7100000000000000000000000000000000000000000000000000000000600052603260045260246000fd5b9060005260206000200160009054906101000a900473ffffffffffffffffffffffffffffffffffffffff168383610d8c565b5b8080610c209061165a565b915050610b0b565b50428260040181905550610c3a610e6c565b6000816000018181525050428160600181815250506002819080600181540180825580915050600190039060005260206000209060050201600090919091909150600082015181600001556020820151816001019080519060200190610ca1929190610e9b565b506040820151816002019080519060200190610cbe929190610f25565b5060608201518160030155608082015181600401555050505050565b606060026001600280549050610cf091906115ea565b81548110610d27577f4e487b7100000000000000000000000000000000000000000000000000000000600052603260045260246000fd5b9060005260206000209060050201600201805480602002602001604051908101604052809291908181526020018280548015610d8257602002820191906000526020600020905b815481526020019060010190808311610d6e575b5050505050905090565b8273ffffffffffffffffffffffffffffffffffffffff166108fc839081150290604051600060405180830381858888f19350505050158015610dd2573d6000803e3d6000fd5b508160018281548110610e0e577f4e487b7100000000000000000000000000000000000000000000000000000000600052603260045260246000fd5b906000526020600020016000828254610e279190611563565b925050819055507f24252ed3fcaa9789c659af71ce089fc63785d4bb9ad39db32bfec910fa52c8478383604051610e5f92919061139b565b60405180910390a1505050565b6040518060a0016040528060008152602001606081526020016060815260200160008152602001600081525090565b828054828255906000526020600020908101928215610f14579160200282015b82811115610f135782518260006101000a81548173ffffffffffffffffffffffffffffffffffffffff021916908373ffffffffffffffffffffffffffffffffffffffff16021790555091602001919060010190610ebb565b5b509050610f219190610f72565b5090565b828054828255906000526020600020908101928215610f61579160200282015b82811115610f60578251825591602001919060010190610f45565b5b509050610f6e9190610f72565b5090565b5b80821115610f8b576000816000905550600101610f73565b5090565b600081359050610f9e81611701565b92915050565b600081359050610fb381611718565b92915050565b600060208284031215610fcb57600080fd5b6000610fd984828501610f8f565b91505092915050565b600060208284031215610ff457600080fd5b600061100284828501610fa4565b91505092915050565b6000611017838361104f565b60208301905092915050565b600061102f8383611300565b905092915050565b6000611043838361137d565b60208301905092915050565b6110588161161e565b82525050565b6110678161161e565b82525050565b6000611078826114b5565b61108281856114fd565b935061108d83611485565b8060005b838110156110be5781516110a5888261100b565b97506110b0836114d6565b925050600181019050611091565b5085935050505092915050565b60006110d6826114b5565b6110e0818561150e565b93506110eb83611485565b8060005b8381101561111c578151611103888261100b565b975061110e836114d6565b9250506001810190506110ef565b5085935050505092915050565b6000611134826114c0565b61113e818561151f565b93508360208202850161115085611495565b8060005b8581101561118c578484038952815161116d8582611023565b9450611178836114e3565b925060208a01995050600181019050611154565b50829750879550505050505092915050565b60006111a9826114cb565b6111b38185611530565b93506111be836114a5565b8060005b838110156111ef5781516111d68882611037565b97506111e1836114f0565b9250506001810190506111c2565b5085935050505092915050565b6000611207826114cb565b6112118185611541565b935061121c836114a5565b8060005b8381101561124d5781516112348882611037565b975061123f836114f0565b925050600181019050611220565b5085935050505092915050565b6000611267601983611552565b91507f4e6f20446f6e6174696f6e7320726563656976656420796574000000000000006000830152602082019050919050565b60006112a7602283611552565b91507f4d696e696d756d2031206d696e75746520696e74657276616c2072657175697260008301527f65640000000000000000000000000000000000000000000000000000000000006020830152604082019050919050565b600060a083016000830151611318600086018261137d565b5060208301518482036020860152611330828261106d565b9150506040830151848203604086015261134a828261119e565b915050606083015161135f606086018261137d565b506080830151611372608086018261137d565b508091505092915050565b61138681611650565b82525050565b61139581611650565b82525050565b60006040820190506113b0600083018561105e565b6113bd602083018461138c565b9392505050565b600060208201905081810360008301526113de81846110cb565b905092915050565b600060208201905081810360008301526114008184611129565b905092915050565b6000602082019050818103600083015261142281846111fc565b905092915050565b600060208201905081810360008301526114438161125a565b9050919050565b600060208201905081810360008301526114638161129a565b9050919050565b600060208201905061147f600083018461138c565b92915050565b6000819050602082019050919050565b6000819050602082019050919050565b6000819050602082019050919050565b600081519050919050565b600081519050919050565b600081519050919050565b6000602082019050919050565b6000602082019050919050565b6000602082019050919050565b600082825260208201905092915050565b600082825260208201905092915050565b600082825260208201905092915050565b600082825260208201905092915050565b600082825260208201905092915050565b600082825260208201905092915050565b600061156e82611650565b915061157983611650565b9250827fffffffffffffffffffffffffffffffffffffffffffffffffffffffffffffffff038211156115ae576115ad6116a3565b5b828201905092915050565b60006115c482611650565b91506115cf83611650565b9250826115df576115de6116d2565b5b828204905092915050565b60006115f582611650565b915061160083611650565b925082821015611613576116126116a3565b5b828203905092915050565b600061162982611630565b9050919050565b600073ffffffffffffffffffffffffffffffffffffffff82169050919050565b6000819050919050565b600061166582611650565b91507fffffffffffffffffffffffffffffffffffffffffffffffffffffffffffffffff821415611698576116976116a3565b5b600182019050919050565b7f4e487b7100000000000000000000000000000000000000000000000000000000600052601160045260246000fd5b7f4e487b7100000000000000000000000000000000000000000000000000000000600052601260045260246000fd5b61170a8161161e565b811461171557600080fd5b50565b61172181611650565b811461172c57600080fd5b5056fea2646970667358221220a34a5d146d3df0a44d37cf92a81eaea9c00778d4915e978156c40f9910b701d564736f6c63430008000033",
  "linkReferences": {},
  "deployedLinkReferences": {}
}